{
  "contractName": "Storage",
  "abi": [
    {
      "inputs": [],
      "payable": false,
      "stateMutability": "nonpayable",
      "type": "constructor"
    },
    {
      "constant": true,
      "inputs": [],
      "name": "getBalanceAmount",
      "outputs": [
        {
          "internalType": "int256",
          "name": "",
          "type": "int256"
        }
      ],
      "payable": false,
      "stateMutability": "view",
      "type": "function"
    },
    {
      "constant": true,
      "inputs": [],
      "name": "getDepositAmount",
      "outputs": [
        {
          "internalType": "int256",
          "name": "",
          "type": "int256"
        }
      ],
      "payable": false,
      "stateMutability": "view",
      "type": "function"
    },
    {
      "constant": false,
      "inputs": [
        {
          "internalType": "int256",
          "name": "amount",
          "type": "int256"
        }
      ],
      "name": "addDepositAmount",
      "outputs": [],
      "payable": false,
      "stateMutability": "nonpayable",
      "type": "function"
    },
    {
      "constant": false,
      "inputs": [],
      "name": "withdrawBalance",
      "outputs": [],
      "payable": false,
      "stateMutability": "nonpayable",
      "type": "function"
    }
  ],
  "bytecode": "0x608060405234801561001057600080fd5b50600080819055506000600181905550600a60028190555060056003819055506101458061003f6000396000f3fe608060405234801561001057600080fd5b506004361061004c5760003560e01c806349c53b921461005157806358d3e10f1461007f5780635fd8c7101461009d5780637d96f693146100a7575b600080fd5b61007d6004803603602081101561006757600080fd5b81019080803590602001909291905050506100c5565b005b6100876100ec565b6040518082815260200191505060405180910390f35b6100a56100f5565b005b6100af610106565b6040518082815260200191505060405180910390f35b8060015401600181905550600254600154126100e957600354600154016000819055505b50565b60008054905090565b600080819055506000600181905550565b600060015490509056fea265627a7a72315820affd3a77d4c567e06b1a878d7c3cbe14e9951bcb9a0e85a2663047fb661578f564736f6c63430005100032",
  "source": "\npragma solidity 0.5.16;\n\n/**\n * @title Storage\n * @dev Store & retrieve value in a variable\n */\ncontract Storage {\n\n    // amount returned to user\n    int256 balanceAmount;\n\n    // amount deposited by user\n    int256 depositAmount;\n\n    // minimum amount to be deposited by user\n    int256 thresholdAmount;\n\n    // amount to be returned in addition to depositAmount to user\n    int256 returnOnInvestment;\n\n    constructor() public {\n        balanceAmount = 0;\n        depositAmount = 0;\n        thresholdAmount = 10;\n        returnOnInvestment = 5;\n    }\n\n    function getBalanceAmount() public view returns (int256) {\n        return balanceAmount;\n    }\n\n    function getDepositAmount() public view returns (int256) {\n        return depositAmount;\n    }\n\n    function addDepositAmount(int256 amount) public {\n        depositAmount = depositAmount + amount;\n\n        if (depositAmount >= thresholdAmount) {\n            balanceAmount = depositAmount + returnOnInvestment;\n        }\n    }\n\n    function withdrawBalance() public {\n        balanceAmount = 0;\n        depositAmount = 0;\n    }\n}",
  "sourcePath": "/Users/jonatascm/Documents/Projetos/dapp_flutter/contracts/Storage.sol",
  "compiler": {
    "name": "solc",
    "version": "0.5.16+commit.9c3226ce.Emscripten.clang"
  },
  "schemaVersion": "3.4.3",
  "updatedAt": "2021-08-20T00:22:20.585Z",
  "networkType": "ethereum",
  "devdoc": {
    "details": "Store & retrieve value in a variable",
    "methods": {},
    "title": "Storage"
  },
  "userdoc": {
    "methods": {}
  }
}